{
  "_format": "hh-sol-artifact-1",
  "contractName": "SampleGameNFT",
  "sourceName": "contracts/SampleGameNFT.sol",
  "abi": [
    {
      "inputs": [],
      "stateMutability": "nonpayable",
      "type": "constructor"
    },
    {
      "anonymous": false,
      "inputs": [
        {
          "indexed": true,
          "internalType": "address",
          "name": "owner",
          "type": "address"
        },
        {
          "indexed": true,
          "internalType": "address",
          "name": "approved",
          "type": "address"
        },
        {
          "indexed": true,
          "internalType": "uint256",
          "name": "tokenId",
          "type": "uint256"
        }
      ],
      "name": "Approval",
      "type": "event"
    },
    {
      "anonymous": false,
      "inputs": [
        {
          "indexed": true,
          "internalType": "address",
          "name": "owner",
          "type": "address"
        },
        {
          "indexed": true,
          "internalType": "address",
          "name": "operator",
          "type": "address"
        },
        {
          "indexed": false,
          "internalType": "bool",
          "name": "approved",
          "type": "bool"
        }
      ],
      "name": "ApprovalForAll",
      "type": "event"
    },
    {
      "anonymous": false,
      "inputs": [
        {
          "indexed": true,
          "internalType": "address",
          "name": "from",
          "type": "address"
        },
        {
          "indexed": true,
          "internalType": "address",
          "name": "to",
          "type": "address"
        },
        {
          "indexed": true,
          "internalType": "uint256",
          "name": "tokenId",
          "type": "uint256"
        }
      ],
      "name": "Transfer",
      "type": "event"
    },
    {
      "inputs": [
        {
          "internalType": "address",
          "name": "to",
          "type": "address"
        },
        {
          "internalType": "uint256",
          "name": "tokenId",
          "type": "uint256"
        }
      ],
      "name": "approve",
      "outputs": [],
      "stateMutability": "nonpayable",
      "type": "function"
    },
    {
      "inputs": [
        {
          "internalType": "address",
          "name": "owner",
          "type": "address"
        }
      ],
      "name": "balanceOf",
      "outputs": [
        {
          "internalType": "uint256",
          "name": "",
          "type": "uint256"
        }
      ],
      "stateMutability": "view",
      "type": "function"
    },
    {
      "inputs": [
        {
          "internalType": "uint256",
          "name": "tokenId",
          "type": "uint256"
        }
      ],
      "name": "getApproved",
      "outputs": [
        {
          "internalType": "address",
          "name": "",
          "type": "address"
        }
      ],
      "stateMutability": "view",
      "type": "function"
    },
    {
      "inputs": [
        {
          "internalType": "address",
          "name": "owner",
          "type": "address"
        },
        {
          "internalType": "address",
          "name": "operator",
          "type": "address"
        }
      ],
      "name": "isApprovedForAll",
      "outputs": [
        {
          "internalType": "bool",
          "name": "",
          "type": "bool"
        }
      ],
      "stateMutability": "view",
      "type": "function"
    },
    {
      "inputs": [],
      "name": "isOwner",
      "outputs": [
        {
          "internalType": "bool",
          "name": "",
          "type": "bool"
        }
      ],
      "stateMutability": "view",
      "type": "function"
    },
    {
      "inputs": [
        {
          "internalType": "address",
          "name": "_to",
          "type": "address"
        },
        {
          "internalType": "string",
          "name": "_tokenUri",
          "type": "string"
        }
      ],
      "name": "makeNFT",
      "outputs": [],
      "stateMutability": "nonpayable",
      "type": "function"
    },
    {
      "inputs": [],
      "name": "name",
      "outputs": [
        {
          "internalType": "string",
          "name": "",
          "type": "string"
        }
      ],
      "stateMutability": "view",
      "type": "function"
    },
    {
      "inputs": [],
      "name": "owner",
      "outputs": [
        {
          "internalType": "address payable",
          "name": "",
          "type": "address"
        }
      ],
      "stateMutability": "view",
      "type": "function"
    },
    {
      "inputs": [
        {
          "internalType": "uint256",
          "name": "tokenId",
          "type": "uint256"
        }
      ],
      "name": "ownerOf",
      "outputs": [
        {
          "internalType": "address",
          "name": "",
          "type": "address"
        }
      ],
      "stateMutability": "view",
      "type": "function"
    },
    {
      "inputs": [
        {
          "internalType": "address",
          "name": "from",
          "type": "address"
        },
        {
          "internalType": "address",
          "name": "to",
          "type": "address"
        },
        {
          "internalType": "uint256",
          "name": "tokenId",
          "type": "uint256"
        }
      ],
      "name": "safeTransferFrom",
      "outputs": [],
      "stateMutability": "nonpayable",
      "type": "function"
    },
    {
      "inputs": [
        {
          "internalType": "address",
          "name": "from",
          "type": "address"
        },
        {
          "internalType": "address",
          "name": "to",
          "type": "address"
        },
        {
          "internalType": "uint256",
          "name": "tokenId",
          "type": "uint256"
        },
        {
          "internalType": "bytes",
          "name": "_data",
          "type": "bytes"
        }
      ],
      "name": "safeTransferFrom",
      "outputs": [],
      "stateMutability": "nonpayable",
      "type": "function"
    },
    {
      "inputs": [
        {
          "internalType": "address",
          "name": "operator",
          "type": "address"
        },
        {
          "internalType": "bool",
          "name": "approved",
          "type": "bool"
        }
      ],
      "name": "setApprovalForAll",
      "outputs": [],
      "stateMutability": "nonpayable",
      "type": "function"
    },
    {
      "inputs": [
        {
          "internalType": "bytes4",
          "name": "interfaceId",
          "type": "bytes4"
        }
      ],
      "name": "supportsInterface",
      "outputs": [
        {
          "internalType": "bool",
          "name": "",
          "type": "bool"
        }
      ],
      "stateMutability": "view",
      "type": "function"
    },
    {
      "inputs": [],
      "name": "symbol",
      "outputs": [
        {
          "internalType": "string",
          "name": "",
          "type": "string"
        }
      ],
      "stateMutability": "view",
      "type": "function"
    },
    {
      "inputs": [
        {
          "internalType": "uint256",
          "name": "tokenId",
          "type": "uint256"
        }
      ],
      "name": "tokenURI",
      "outputs": [
        {
          "internalType": "string",
          "name": "",
          "type": "string"
        }
      ],
      "stateMutability": "view",
      "type": "function"
    },
    {
      "inputs": [
        {
          "internalType": "address",
          "name": "from",
          "type": "address"
        },
        {
          "internalType": "address",
          "name": "to",
          "type": "address"
        },
        {
          "internalType": "uint256",
          "name": "tokenId",
          "type": "uint256"
        }
      ],
      "name": "transferFrom",
      "outputs": [],
      "stateMutability": "nonpayable",
      "type": "function"
    }
  ],
  "bytecode": "0x60806040523480156200001157600080fd5b506040518060400160405280600d81526020017f53616d706c6547616d654e4654000000000000000000000000000000000000008152506040518060400160405280600681526020017f53616d706c650000000000000000000000000000000000000000000000000000815250816000908051906020019062000096929190620000f9565b508060019080519060200190620000af929190620000f9565b50505033600860006101000a81548173ffffffffffffffffffffffffffffffffffffffff021916908373ffffffffffffffffffffffffffffffffffffffff1602179055506200020e565b8280546200010790620001d8565b90600052602060002090601f0160209004810192826200012b576000855562000177565b82601f106200014657805160ff191683800117855562000177565b8280016001018555821562000177579182015b828111156200017657825182559160200191906001019062000159565b5b5090506200018691906200018a565b5090565b5b80821115620001a55760008160009055506001016200018b565b5090565b7f4e487b7100000000000000000000000000000000000000000000000000000000600052602260045260246000fd5b60006002820490506001821680620001f157607f821691505b60208210811415620002085762000207620001a9565b5b50919050565b612d3d806200021e6000396000f3fe608060405234801561001057600080fd5b50600436106101005760003560e01c80638da5cb5b11610097578063b0bb737b11610066578063b0bb737b146102ad578063b88d4fde146102c9578063c87b56dd146102e5578063e985e9c51461031557610100565b80638da5cb5b146102375780638f32d59b1461025557806395d89b4114610273578063a22cb4651461029157610100565b806323b872dd116100d357806323b872dd1461019f57806342842e0e146101bb5780636352211e146101d757806370a082311461020757610100565b806301ffc9a71461010557806306fdde0314610135578063081812fc14610153578063095ea7b314610183575b600080fd5b61011f600480360381019061011a9190611a63565b610345565b60405161012c9190611aab565b60405180910390f35b61013d610427565b60405161014a9190611b5f565b60405180910390f35b61016d60048036038101906101689190611bb7565b6104b9565b60405161017a9190611c25565b60405180910390f35b61019d60048036038101906101989190611c6c565b61053e565b005b6101b960048036038101906101b49190611cac565b610656565b005b6101d560048036038101906101d09190611cac565b6106b6565b005b6101f160048036038101906101ec9190611bb7565b6106d6565b6040516101fe9190611c25565b60405180910390f35b610221600480360381019061021c9190611cff565b610788565b60405161022e9190611d3b565b60405180910390f35b61023f610840565b60405161024c9190611d77565b60405180910390f35b61025d610866565b60405161026a9190611aab565b60405180910390f35b61027b6108be565b6040516102889190611b5f565b60405180910390f35b6102ab60048036038101906102a69190611dbe565b610950565b005b6102c760048036038101906102c29190611f33565b610966565b005b6102e360048036038101906102de9190612030565b6109a8565b005b6102ff60048036038101906102fa9190611bb7565b610a0a565b60405161030c9190611b5f565b60405180910390f35b61032f600480360381019061032a91906120b3565b610b5c565b60405161033c9190611aab565b60405180910390f35b60007f80ac58cd000000000000000000000000000000000000000000000000000000007bffffffffffffffffffffffffffffffffffffffffffffffffffffffff1916827bffffffffffffffffffffffffffffffffffffffffffffffffffffffff1916148061041057507f5b5e139f000000000000000000000000000000000000000000000000000000007bffffffffffffffffffffffffffffffffffffffffffffffffffffffff1916827bffffffffffffffffffffffffffffffffffffffffffffffffffffffff1916145b80610420575061041f82610bf0565b5b9050919050565b60606000805461043690612122565b80601f016020809104026020016040519081016040528092919081815260200182805461046290612122565b80156104af5780601f10610484576101008083540402835291602001916104af565b820191906000526020600020905b81548152906001019060200180831161049257829003601f168201915b5050505050905090565b60006104c482610c5a565b610503576040517f08c379a00000000000000000000000000000000000000000000000000000000081526004016104fa906121c6565b60405180910390fd5b6004600083815260200190815260200160002060009054906101000a900473ffffffffffffffffffffffffffffffffffffffff169050919050565b6000610549826106d6565b90508073ffffffffffffffffffffffffffffffffffffffff168373ffffffffffffffffffffffffffffffffffffffff1614156105ba576040517f08c379a00000000000000000000000000000000000000000000000000000000081526004016105b190612258565b60405180910390fd5b8073ffffffffffffffffffffffffffffffffffffffff166105d9610cc6565b73ffffffffffffffffffffffffffffffffffffffff161480610608575061060781610602610cc6565b610b5c565b5b610647576040517f08c379a000000000000000000000000000000000000000000000000000000000815260040161063e906122ea565b60405180910390fd5b6106518383610cce565b505050565b610667610661610cc6565b82610d87565b6106a6576040517f08c379a000000000000000000000000000000000000000000000000000000000815260040161069d9061237c565b60405180910390fd5b6106b1838383610e65565b505050565b6106d1838383604051806020016040528060008152506109a8565b505050565b6000806002600084815260200190815260200160002060009054906101000a900473ffffffffffffffffffffffffffffffffffffffff169050600073ffffffffffffffffffffffffffffffffffffffff168173ffffffffffffffffffffffffffffffffffffffff16141561077f576040517f08c379a00000000000000000000000000000000000000000000000000000000081526004016107769061240e565b60405180910390fd5b80915050919050565b60008073ffffffffffffffffffffffffffffffffffffffff168273ffffffffffffffffffffffffffffffffffffffff1614156107f9576040517f08c379a00000000000000000000000000000000000000000000000000000000081526004016107f0906124a0565b60405180910390fd5b600360008373ffffffffffffffffffffffffffffffffffffffff1673ffffffffffffffffffffffffffffffffffffffff168152602001908152602001600020549050919050565b600860009054906101000a900473ffffffffffffffffffffffffffffffffffffffff1681565b6000600860009054906101000a900473ffffffffffffffffffffffffffffffffffffffff1673ffffffffffffffffffffffffffffffffffffffff163373ffffffffffffffffffffffffffffffffffffffff1614905090565b6060600180546108cd90612122565b80601f01602080910402602001604051908101604052809291908181526020018280546108f990612122565b80156109465780601f1061091b57610100808354040283529160200191610946565b820191906000526020600020905b81548152906001019060200180831161092957829003601f168201915b5050505050905090565b61096261095b610cc6565b83836110cc565b5050565b61096e610866565b61097757600080fd5b60006109836007611239565b905061098f8382611247565b6109998183611265565b6109a360076112d9565b505050565b6109b96109b3610cc6565b83610d87565b6109f8576040517f08c379a00000000000000000000000000000000000000000000000000000000081526004016109ef9061237c565b60405180910390fd5b610a04848484846112ef565b50505050565b6060610a1582610c5a565b610a54576040517f08c379a0000000000000000000000000000000000000000000000000000000008152600401610a4b90612532565b60405180910390fd5b6000600660008481526020019081526020016000208054610a7490612122565b80601f0160208091040260200160405190810160405280929190818152602001828054610aa090612122565b8015610aed5780601f10610ac257610100808354040283529160200191610aed565b820191906000526020600020905b815481529060010190602001808311610ad057829003601f168201915b505050505090506000610afe61134b565b9050600081511415610b14578192505050610b57565b600082511115610b49578082604051602001610b3192919061258e565b60405160208183030381529060405292505050610b57565b610b5284611362565b925050505b919050565b6000600560008473ffffffffffffffffffffffffffffffffffffffff1673ffffffffffffffffffffffffffffffffffffffff16815260200190815260200160002060008373ffffffffffffffffffffffffffffffffffffffff1673ffffffffffffffffffffffffffffffffffffffff16815260200190815260200160002060009054906101000a900460ff16905092915050565b60007f01ffc9a7000000000000000000000000000000000000000000000000000000007bffffffffffffffffffffffffffffffffffffffffffffffffffffffff1916827bffffffffffffffffffffffffffffffffffffffffffffffffffffffff1916149050919050565b60008073ffffffffffffffffffffffffffffffffffffffff166002600084815260200190815260200160002060009054906101000a900473ffffffffffffffffffffffffffffffffffffffff1673ffffffffffffffffffffffffffffffffffffffff1614159050919050565b600033905090565b816004600083815260200190815260200160002060006101000a81548173ffffffffffffffffffffffffffffffffffffffff021916908373ffffffffffffffffffffffffffffffffffffffff160217905550808273ffffffffffffffffffffffffffffffffffffffff16610d41836106d6565b73ffffffffffffffffffffffffffffffffffffffff167f8c5be1e5ebec7d5bd14f71427d1e84f3dd0314c0f7b2291e5b200ac8c7c3b92560405160405180910390a45050565b6000610d9282610c5a565b610dd1576040517f08c379a0000000000000000000000000000000000000000000000000000000008152600401610dc890612624565b60405180910390fd5b6000610ddc836106d6565b90508073ffffffffffffffffffffffffffffffffffffffff168473ffffffffffffffffffffffffffffffffffffffff161480610e1e5750610e1d8185610b5c565b5b80610e5c57508373ffffffffffffffffffffffffffffffffffffffff16610e44846104b9565b73ffffffffffffffffffffffffffffffffffffffff16145b91505092915050565b8273ffffffffffffffffffffffffffffffffffffffff16610e85826106d6565b73ffffffffffffffffffffffffffffffffffffffff1614610edb576040517f08c379a0000000000000000000000000000000000000000000000000000000008152600401610ed2906126b6565b60405180910390fd5b600073ffffffffffffffffffffffffffffffffffffffff168273ffffffffffffffffffffffffffffffffffffffff161415610f4b576040517f08c379a0000000000000000000000000000000000000000000000000000000008152600401610f4290612748565b60405180910390fd5b610f56838383611409565b610f61600082610cce565b6001600360008573ffffffffffffffffffffffffffffffffffffffff1673ffffffffffffffffffffffffffffffffffffffff1681526020019081526020016000206000828254610fb19190612797565b925050819055506001600360008473ffffffffffffffffffffffffffffffffffffffff1673ffffffffffffffffffffffffffffffffffffffff168152602001908152602001600020600082825461100891906127cb565b92505081905550816002600083815260200190815260200160002060006101000a81548173ffffffffffffffffffffffffffffffffffffffff021916908373ffffffffffffffffffffffffffffffffffffffff160217905550808273ffffffffffffffffffffffffffffffffffffffff168473ffffffffffffffffffffffffffffffffffffffff167fddf252ad1be2c89b69c2b068fc378daa952ba7f163c4a11628f55a4df523b3ef60405160405180910390a46110c783838361140e565b505050565b8173ffffffffffffffffffffffffffffffffffffffff168373ffffffffffffffffffffffffffffffffffffffff16141561113b576040517f08c379a00000000000000000000000000000000000000000000000000000000081526004016111329061286d565b60405180910390fd5b80600560008573ffffffffffffffffffffffffffffffffffffffff1673ffffffffffffffffffffffffffffffffffffffff16815260200190815260200160002060008473ffffffffffffffffffffffffffffffffffffffff1673ffffffffffffffffffffffffffffffffffffffff16815260200190815260200160002060006101000a81548160ff0219169083151502179055508173ffffffffffffffffffffffffffffffffffffffff168373ffffffffffffffffffffffffffffffffffffffff167f17307eab39ab6107e8899845ad3d59bd9653f200f220920489ca2b5937696c318360405161122c9190611aab565b60405180910390a3505050565b600081600001549050919050565b611261828260405180602001604052806000815250611413565b5050565b61126e82610c5a565b6112ad576040517f08c379a00000000000000000000000000000000000000000000000000000000081526004016112a4906128ff565b60405180910390fd5b806006600084815260200190815260200160002090805190602001906112d4929190611954565b505050565b6001816000016000828254019250508190555050565b6112fa848484610e65565b6113068484848461146e565b611345576040517f08c379a000000000000000000000000000000000000000000000000000000000815260040161133c90612991565b60405180910390fd5b50505050565b606060405180602001604052806000815250905090565b606061136d82610c5a565b6113ac576040517f08c379a00000000000000000000000000000000000000000000000000000000081526004016113a390612a23565b60405180910390fd5b60006113b661134b565b905060008151116113d65760405180602001604052806000815250611401565b806113e0846115f6565b6040516020016113f192919061258e565b6040516020818303038152906040525b915050919050565b505050565b505050565b61141d8383611757565b61142a600084848461146e565b611469576040517f08c379a000000000000000000000000000000000000000000000000000000000815260040161146090612991565b60405180910390fd5b505050565b600061148f8473ffffffffffffffffffffffffffffffffffffffff16611931565b156115e9578373ffffffffffffffffffffffffffffffffffffffff1663150b7a026114b8610cc6565b8786866040518563ffffffff1660e01b81526004016114da9493929190612a98565b6020604051808303816000875af192505050801561151657506040513d601f19601f820116820180604052508101906115139190612af9565b60015b611599573d8060008114611546576040519150601f19603f3d011682016040523d82523d6000602084013e61154b565b606091505b50600081511415611591576040517f08c379a000000000000000000000000000000000000000000000000000000000815260040161158890612991565b60405180910390fd5b805181602001fd5b63150b7a0260e01b7bffffffffffffffffffffffffffffffffffffffffffffffffffffffff1916817bffffffffffffffffffffffffffffffffffffffffffffffffffffffff1916149150506115ee565b600190505b949350505050565b6060600082141561163e576040518060400160405280600181526020017f30000000000000000000000000000000000000000000000000000000000000008152509050611752565b600082905060005b6000821461167057808061165990612b26565b915050600a826116699190612b9e565b9150611646565b60008167ffffffffffffffff81111561168c5761168b611e08565b5b6040519080825280601f01601f1916602001820160405280156116be5781602001600182028036833780820191505090505b5090505b6000851461174b576001826116d79190612797565b9150600a856116e69190612bcf565b60306116f291906127cb565b60f81b81838151811061170857611707612c00565b5b60200101907effffffffffffffffffffffffffffffffffffffffffffffffffffffffffffff1916908160001a905350600a856117449190612b9e565b94506116c2565b8093505050505b919050565b600073ffffffffffffffffffffffffffffffffffffffff168273ffffffffffffffffffffffffffffffffffffffff1614156117c7576040517f08c379a00000000000000000000000000000000000000000000000000000000081526004016117be90612c7b565b60405180910390fd5b6117d081610c5a565b15611810576040517f08c379a000000000000000000000000000000000000000000000000000000000815260040161180790612ce7565b60405180910390fd5b61181c60008383611409565b6001600360008473ffffffffffffffffffffffffffffffffffffffff1673ffffffffffffffffffffffffffffffffffffffff168152602001908152602001600020600082825461186c91906127cb565b92505081905550816002600083815260200190815260200160002060006101000a81548173ffffffffffffffffffffffffffffffffffffffff021916908373ffffffffffffffffffffffffffffffffffffffff160217905550808273ffffffffffffffffffffffffffffffffffffffff16600073ffffffffffffffffffffffffffffffffffffffff167fddf252ad1be2c89b69c2b068fc378daa952ba7f163c4a11628f55a4df523b3ef60405160405180910390a461192d6000838361140e565b5050565b6000808273ffffffffffffffffffffffffffffffffffffffff163b119050919050565b82805461196090612122565b90600052602060002090601f01602090048101928261198257600085556119c9565b82601f1061199b57805160ff19168380011785556119c9565b828001600101855582156119c9579182015b828111156119c85782518255916020019190600101906119ad565b5b5090506119d691906119da565b5090565b5b808211156119f35760008160009055506001016119db565b5090565b6000604051905090565b600080fd5b600080fd5b60007fffffffff0000000000000000000000000000000000000000000000000000000082169050919050565b611a4081611a0b565b8114611a4b57600080fd5b50565b600081359050611a5d81611a37565b92915050565b600060208284031215611a7957611a78611a01565b5b6000611a8784828501611a4e565b91505092915050565b60008115159050919050565b611aa581611a90565b82525050565b6000602082019050611ac06000830184611a9c565b92915050565b600081519050919050565b600082825260208201905092915050565b60005b83811015611b00578082015181840152602081019050611ae5565b83811115611b0f576000848401525b50505050565b6000601f19601f8301169050919050565b6000611b3182611ac6565b611b3b8185611ad1565b9350611b4b818560208601611ae2565b611b5481611b15565b840191505092915050565b60006020820190508181036000830152611b798184611b26565b905092915050565b6000819050919050565b611b9481611b81565b8114611b9f57600080fd5b50565b600081359050611bb181611b8b565b92915050565b600060208284031215611bcd57611bcc611a01565b5b6000611bdb84828501611ba2565b91505092915050565b600073ffffffffffffffffffffffffffffffffffffffff82169050919050565b6000611c0f82611be4565b9050919050565b611c1f81611c04565b82525050565b6000602082019050611c3a6000830184611c16565b92915050565b611c4981611c04565b8114611c5457600080fd5b50565b600081359050611c6681611c40565b92915050565b60008060408385031215611c8357611c82611a01565b5b6000611c9185828601611c57565b9250506020611ca285828601611ba2565b9150509250929050565b600080600060608486031215611cc557611cc4611a01565b5b6000611cd386828701611c57565b9350506020611ce486828701611c57565b9250506040611cf586828701611ba2565b9150509250925092565b600060208284031215611d1557611d14611a01565b5b6000611d2384828501611c57565b91505092915050565b611d3581611b81565b82525050565b6000602082019050611d506000830184611d2c565b92915050565b6000611d6182611be4565b9050919050565b611d7181611d56565b82525050565b6000602082019050611d8c6000830184611d68565b92915050565b611d9b81611a90565b8114611da657600080fd5b50565b600081359050611db881611d92565b92915050565b60008060408385031215611dd557611dd4611a01565b5b6000611de385828601611c57565b9250506020611df485828601611da9565b9150509250929050565b600080fd5b600080fd5b7f4e487b7100000000000000000000000000000000000000000000000000000000600052604160045260246000fd5b611e4082611b15565b810181811067ffffffffffffffff82111715611e5f57611e5e611e08565b5b80604052505050565b6000611e726119f7565b9050611e7e8282611e37565b919050565b600067ffffffffffffffff821115611e9e57611e9d611e08565b5b611ea782611b15565b9050602081019050919050565b82818337600083830152505050565b6000611ed6611ed184611e83565b611e68565b905082815260208101848484011115611ef257611ef1611e03565b5b611efd848285611eb4565b509392505050565b600082601f830112611f1a57611f19611dfe565b5b8135611f2a848260208601611ec3565b91505092915050565b60008060408385031215611f4a57611f49611a01565b5b6000611f5885828601611c57565b925050602083013567ffffffffffffffff811115611f7957611f78611a06565b5b611f8585828601611f05565b9150509250929050565b600067ffffffffffffffff821115611faa57611fa9611e08565b5b611fb382611b15565b9050602081019050919050565b6000611fd3611fce84611f8f565b611e68565b905082815260208101848484011115611fef57611fee611e03565b5b611ffa848285611eb4565b509392505050565b600082601f83011261201757612016611dfe565b5b8135612027848260208601611fc0565b91505092915050565b6000806000806080858703121561204a57612049611a01565b5b600061205887828801611c57565b945050602061206987828801611c57565b935050604061207a87828801611ba2565b925050606085013567ffffffffffffffff81111561209b5761209a611a06565b5b6120a787828801612002565b91505092959194509250565b600080604083850312156120ca576120c9611a01565b5b60006120d885828601611c57565b92505060206120e985828601611c57565b9150509250929050565b7f4e487b7100000000000000000000000000000000000000000000000000000000600052602260045260246000fd5b6000600282049050600182168061213a57607f821691505b6020821081141561214e5761214d6120f3565b5b50919050565b7f4552433732313a20617070726f76656420717565727920666f72206e6f6e657860008201527f697374656e7420746f6b656e0000000000000000000000000000000000000000602082015250565b60006121b0602c83611ad1565b91506121bb82612154565b604082019050919050565b600060208201905081810360008301526121df816121a3565b9050919050565b7f4552433732313a20617070726f76616c20746f2063757272656e74206f776e6560008201527f7200000000000000000000000000000000000000000000000000000000000000602082015250565b6000612242602183611ad1565b915061224d826121e6565b604082019050919050565b6000602082019050818103600083015261227181612235565b9050919050565b7f4552433732313a20617070726f76652063616c6c6572206973206e6f74206f7760008201527f6e6572206e6f7220617070726f76656420666f7220616c6c0000000000000000602082015250565b60006122d4603883611ad1565b91506122df82612278565b604082019050919050565b60006020820190508181036000830152612303816122c7565b9050919050565b7f4552433732313a207472616e736665722063616c6c6572206973206e6f74206f60008201527f776e6572206e6f7220617070726f766564000000000000000000000000000000602082015250565b6000612366603183611ad1565b91506123718261230a565b604082019050919050565b6000602082019050818103600083015261239581612359565b9050919050565b7f4552433732313a206f776e657220717565727920666f72206e6f6e657869737460008201527f656e7420746f6b656e0000000000000000000000000000000000000000000000602082015250565b60006123f8602983611ad1565b91506124038261239c565b604082019050919050565b60006020820190508181036000830152612427816123eb565b9050919050565b7f4552433732313a2062616c616e636520717565727920666f7220746865207a6560008201527f726f206164647265737300000000000000000000000000000000000000000000602082015250565b600061248a602a83611ad1565b91506124958261242e565b604082019050919050565b600060208201905081810360008301526124b98161247d565b9050919050565b7f45524337323155524953746f726167653a2055524920717565727920666f722060008201527f6e6f6e6578697374656e7420746f6b656e000000000000000000000000000000602082015250565b600061251c603183611ad1565b9150612527826124c0565b604082019050919050565b6000602082019050818103600083015261254b8161250f565b9050919050565b600081905092915050565b600061256882611ac6565b6125728185612552565b9350612582818560208601611ae2565b80840191505092915050565b600061259a828561255d565b91506125a6828461255d565b91508190509392505050565b7f4552433732313a206f70657261746f7220717565727920666f72206e6f6e657860008201527f697374656e7420746f6b656e0000000000000000000000000000000000000000602082015250565b600061260e602c83611ad1565b9150612619826125b2565b604082019050919050565b6000602082019050818103600083015261263d81612601565b9050919050565b7f4552433732313a207472616e736665722066726f6d20696e636f72726563742060008201527f6f776e6572000000000000000000000000000000000000000000000000000000602082015250565b60006126a0602583611ad1565b91506126ab82612644565b604082019050919050565b600060208201905081810360008301526126cf81612693565b9050919050565b7f4552433732313a207472616e7366657220746f20746865207a65726f2061646460008201527f7265737300000000000000000000000000000000000000000000000000000000602082015250565b6000612732602483611ad1565b915061273d826126d6565b604082019050919050565b6000602082019050818103600083015261276181612725565b9050919050565b7f4e487b7100000000000000000000000000000000000000000000000000000000600052601160045260246000fd5b60006127a282611b81565b91506127ad83611b81565b9250828210156127c0576127bf612768565b5b828203905092915050565b60006127d682611b81565b91506127e183611b81565b9250827fffffffffffffffffffffffffffffffffffffffffffffffffffffffffffffffff0382111561281657612815612768565b5b828201905092915050565b7f4552433732313a20617070726f766520746f2063616c6c657200000000000000600082015250565b6000612857601983611ad1565b915061286282612821565b602082019050919050565b600060208201905081810360008301526128868161284a565b9050919050565b7f45524337323155524953746f726167653a2055524920736574206f66206e6f6e60008201527f6578697374656e7420746f6b656e000000000000000000000000000000000000602082015250565b60006128e9602e83611ad1565b91506128f48261288d565b604082019050919050565b60006020820190508181036000830152612918816128dc565b9050919050565b7f4552433732313a207472616e7366657220746f206e6f6e20455243373231526560008201527f63656976657220696d706c656d656e7465720000000000000000000000000000602082015250565b600061297b603283611ad1565b91506129868261291f565b604082019050919050565b600060208201905081810360008301526129aa8161296e565b9050919050565b7f4552433732314d657461646174613a2055524920717565727920666f72206e6f60008201527f6e6578697374656e7420746f6b656e0000000000000000000000000000000000602082015250565b6000612a0d602f83611ad1565b9150612a18826129b1565b604082019050919050565b60006020820190508181036000830152612a3c81612a00565b9050919050565b600081519050919050565b600082825260208201905092915050565b6000612a6a82612a43565b612a748185612a4e565b9350612a84818560208601611ae2565b612a8d81611b15565b840191505092915050565b6000608082019050612aad6000830187611c16565b612aba6020830186611c16565b612ac76040830185611d2c565b8181036060830152612ad98184612a5f565b905095945050505050565b600081519050612af381611a37565b92915050565b600060208284031215612b0f57612b0e611a01565b5b6000612b1d84828501612ae4565b91505092915050565b6000612b3182611b81565b91507fffffffffffffffffffffffffffffffffffffffffffffffffffffffffffffffff821415612b6457612b63612768565b5b600182019050919050565b7f4e487b7100000000000000000000000000000000000000000000000000000000600052601260045260246000fd5b6000612ba982611b81565b9150612bb483611b81565b925082612bc457612bc3612b6f565b5b828204905092915050565b6000612bda82611b81565b9150612be583611b81565b925082612bf557612bf4612b6f565b5b828206905092915050565b7f4e487b7100000000000000000000000000000000000000000000000000000000600052603260045260246000fd5b7f4552433732313a206d696e7420746f20746865207a65726f2061646472657373600082015250565b6000612c65602083611ad1565b9150612c7082612c2f565b602082019050919050565b60006020820190508181036000830152612c9481612c58565b9050919050565b7f4552433732313a20746f6b656e20616c7265616479206d696e74656400000000600082015250565b6000612cd1601c83611ad1565b9150612cdc82612c9b565b602082019050919050565b60006020820190508181036000830152612d0081612cc4565b905091905056fea2646970667358221220b61adc6987b289b0bef91956c8b6d10ace32af3edd5d960c23edb799cf86450364736f6c634300080a0033",
  "linkReferences": {},
  "deployedLinkReferences": {}
}